:020000040800F2
:1000000040230020153A0008893900088B39000880
:100010008D3900088F390008913900080000000070
:1000200000000000000000000000000093390008FC
:100030009539000800000000973900089939000838
:10004000313A0008353A0008393A00083D3A0008CC
:10005000413A0008453A0008493A00084D3A00087C
:10006000513A0008553A0008593A00085D3A00082C
:10007000613A0008653A0008693A00086D3A0008DC
:10008000713A0008753A0008793A00087D3A00088C
:100090009D390008813A0008853A0008893A00082D
:1000A0008D3A0008913A0008953A0008993A0008FC
:1000B0009D3A0008A13A0008A53A0008A93A0008AC
:1000C000AD3A0008B13A0008B53A0008B93A00085C
:1000D000BD3A0008C13A0008C53A0008C93A00080C
:1000E000CD3A0008D13A0008D53A000878B50400A6
:1000F00085B045D004F52A75687820B900212970AB
:10010000204600F0D5FC03206870206800F00AFE4D
:1001100083B000F048F80EBC206800F0F9FD00281C
:100120002CD12068002100F003FE002128200026A9
:100130000AE000FB01F222442832012353701170BF
:10014000D181002300F028F862689142F1D30021A8
:1001500009E000FB01F2224402F5B47200231170A1
:10016000537000F019F862689142F2D383B000F046
:100170001AF80EBC206800F0DDFD18B1022068708E
:10018000012007E084F8240001216970206801F053
:100190003FFA002006B070BD491CD670136156614D
:1001A0009361C9B27047211D6846202201F062BAEE
:1001B00010B5040006D0032084F8A902206801F0DD
:1001C00016FA08B1012010BD204600F08BFC00207B
:1001D00084F8A90210BD10B500F07FFB01D1022008
:1001E00010BD00F07FFB206800F094FD6BE310B5BC
:1001F00000F073FB01D1022010BD00F073FB2068FA
:1002000000F090FD00F004F8206801F001FA60E3CE
:100210000021204600F055BD2DE9F84F064686B076
:1002200000F04EFB000400F1CC8000F049FB4005DB
:100230000CD500F018FB4FF6FF3000F010FB3046F5
:1002400000F07AFC0021304600F050FB00F038FB53
:10025000400405D500F007FB4BF6FF7000F0FFFAF5
:1002600000F02EFB800405D500F0FDFA4DF6FF707E
:1002700000F0F5FA00F024FBC00418D53168B1F89D
:1002800040204FF6FB700240A1F840204FF6F77077
:100290003168B1F840200240A1F84020304600F01B
:1002A0006BFC00F0E0FA4EF6FF7000F0D8FA00F0B8
:1002B00007FB000543D5002001A9326832F8203041
:1002C00021F81030401C0828F7D3B2F8400040F065
:1002D0000100A2F840004FF6FE703268B2F84030DC
:1002E0000340A2F840303268B2F844004305FAD522
:1002F0004FF6FF30B2F844400440A2F844400020DA
:10030000336831F8102023F82020401C0828F7D348
:100310003068B0F8401041F00801A0F840104FF2EA
:10032000FF7000F0A0FA00F09AFA3068B0F84010C0
:1003300041F00401A0F84010304600F00FFC00F03E
:10034000BFFA800508D500F08EFA4FF6FF5000F096
:1003500086FA304600F0ECFB00F0B2FAC00505D595
:1003600000F081FA4FF6FF6000F079FA07B0BDE8BF
:10037000F08F018809EA010141F40041018006F192
:1003800024043068B0F85010227901EBC20100EB70
:10039000410000F204400088A169C0F30900206216
:1003A0000844A061002100F057FA207848B1E069C4
:1003B00038B92178306841F08001A0F84C10002154
:1003C0002170306800F144010A8813047FF52DAFD5
:1003D0000A8812F00F0548F2800A4BF68F7B40F630
:1003E0008F7448F60F7967D1D206C2D502881305FB
:1003F00006F5B47514D5898900F025FAEA88C3F3A7
:100400000903EB6106F52C7101F020F930680188D1
:100410000C4044F080040480304600F070FBD0E7CC
:100420001104CED50288144044F080040480306862
:10043000B0F8501000F007FAC3F30903002BEB618A
:100440001CBF696900290AD0EA8801F0FFF86869D1
:10045000E969014469613046002100F056FB3168CA
:10046000B1F850004118286901F20C4148B90888D8
:1004700048F2FF32104008800B8843F400430B80A1
:1004800010E03F2805D24208C00748BF521C900226
:1004900007E0420910F01F0F08BF521E900240F4FF
:1004A00000400880306801880BEA010181F4405166
:1004B0004AEA0101018084E730F8252000922823D0
:1004C00000996B4333440A04059348F68F7840F152
:1004D0009B8030F825100C4044F0800420F8254023
:1004E0000598D6F800C000F5B477387B70B9BCF831
:1004F0005000397800EBC1000CEB400200F09CF991
:100500006ED0FA8879692346604667E0F878022859
:1005100048F2C00238D1009BB96903F040005B0487
:100520003B786446BCF850C00CEBC30C04EB4C04A5
:1005300013D504F204442488C4F30904A1422CBF57
:10054000091B0021B96109B900F09BF908B100F05D
:100550008EF9002C44D03A8912E004F20C4424882D
:10056000C4F30904A1422CBF091B0021B96109B9D8
:1005700000F087F908B900F07AF9002C30D07A89B8
:1005800079693068234629E038783CF8201008EA79
:1005900001010A432CF82020397830680B4630F8E6
:1005A000234063040ED5B0F8504004EBC10400EBC7
:1005B000440202F204421488C4F30904002C0FD050
:1005C0003A8909E0B0F8503003EBC10300EB430275
:1005D00000F032F904D07A892346796901F036F8BF
:1005E000F8692018F8617A6922447A61B86938B1EB
:1005F0003869844204D33068394600F041FD03E095
:100600003978304600F081FA009801067FF5D9AEBE
:10061000059800F12807306830F8251009EA010133
:1006200041F4004120F82510F878022840F0CF80EE
:100630000098C10540F1CB80014601F48044336845
:10064000B869490639781A46B3F8503003EBC1034C
:100650004CF2800502EB43024FD502F204421388AC
:10066000C3F30903834234BFC01A0020B86120B924
:1006700000F0F2F8002C58D04EE00CB100F00DF96B
:1006800097F82400012846D100F0CCF803D3134694
:10069000C01A386208E010B987F8240004E000228C
:1006A00087F8242003463A627878F0B900F0FEF823
:1006B0004BB9028848F2FF3422400280058845F495
:1006C0000045058016E03F2B05D25A08DC0748BFDD
:1006D000521C920207E05A0913F01F0F08BF521E66
:1006E000920242F40042028004E0012802D100F0AC
:1006F000DDF803809BB23A8958E002F20C4213887D
:10070000C3F3090398422CBFC01A0020B86168B92E
:1007100000F0A2F8002C4CD13168387831F8202054
:1007200008EA02022A4321F8202042E00CB900F036
:10073000B4F897F8240001283BD100F073F803D3F4
:100740001346C01A386208E010B987F8240004E0A4
:1007500000223A62034687F8242034687878F0B99A
:1007600000F057F84BB9108848F2FF342040108051
:10077000158845F40045158016E03F2B05D2580832
:10078000DC0748BF401C800207E0580913F01F0F28
:1007900008BF401E800240F40040108004E00128A1
:1007A00002D100F036F813809BB27A89306800F0ED
:1007B0003BFF3168387831F8202048F6BF731A4083
:1007C00082F030024AEA020221F82020F9E530687E
:1007D0003978B0F8502002EBC10200EB420000F281
:1007E00004400288B869C2F30902824234BF801A09
:1007F0000020B86110B900F02FF8E2E578691044E4
:100800007861F9695218FA613946306800F038FCAD
:10081000D7E5B4F8500002193C7802EB041202F25A
:100820000C4270477869C1187961FA699A18FA61BF
:10083000386A3A699042704702F20C421488C4F355
:100840000904002C70472A7801EBC20100EB410338
:1008500003F20C431B887047304600F060B9024039
:10086000A1F8442070473168B1F8442070473168DE
:10087000387831F8203008EA03031A4321F82020A1
:100880007047316831F823C00BEA0C0B8BF4005B26
:100890004AEA0B0B21F823B07047306830F821206A
:1008A00008EA02022A4320F8212070473068B0F895
:1008B00050203C78101800EB041000F20440704700
:1008C000306800F0A7BE0121FFF7A3FC206800F00C
:1008D0009DFE002084F8A80210BD044694F8A802EA
:1008E00001287047012084F8A802704710B5FFF76F
:1008F000F4FF01D1022010BDFFF7F4FF84F82410AB
:10090000206800F07DFEE4E738B5054601F00704F5
:100910002820444328190C0647BF00F12804012071
:1009200000F5B474002001F00701607021702261AD
:10093000E370607808B12178E181022B04BF0020C8
:10094000207195F8A802012801D1022032BD0120B2
:1009500085F8A8022146286800F0F8F970E010B583
:10096000044600F095F800F08CF801D1022010BD8B
:1009700000F081F800F0FEFAABE738B501F00705AA
:1009800028246543441904F5B47401F00701626139
:10099000A3610022E2616270217021461CE001F037
:1009A0000701282251430844D0F88401704738B524
:1009B0001C4601F0070528235D43431928335A617B
:1009C0009C611C620122002401F0070183F82420AD
:1009D000DC615A7019701946006800F051FB002064
:1009E00032BD38B505460C46696804F007008142FF
:1009F00001D2012032BD2821220605D548432844D2
:100A000000F12801012004E06143681800F5B47189
:100A10000020487001228A7004F007040C7095F8D9
:100A2000A802012801D1022032BD85F8A822286839
:100A300000F087FD24B9286805F52C7100F0EDFD64
:100A4000002085F8A80232BD10B5044601F00F035E
:100A50006068984201D2012010BD00F019F800230F
:100A6000837000F00EF801D1022010BD00F003F8F1
:100A700000F080FD2DE7012284F8A82201462068BD
:100A8000704701F00701017094F8A812012970471E
:100A900001F0070228204243A0180A0603D5283097
:100AA00001234370704700F5B47000224270704714
:100AB00000687E49884200D0704780B57C48026853
:100AC00042F4000202600022006800F4000000907E
:100AD00000210098142000F0F3FDBDE8024014202E
:100AE00000F00BBE00687149884207D17048026867
:100AF00022F400020260142000F00ABE704700F5E4
:100B00002C71D0F8E80200F086BE0B462822534331
:100B1000C218D0F8E802D2F87C2100F0A6BE0B463D
:100B200028225343C218D0F8E802D26B00F0DEBE90
:100B3000D0F8E80200F06EBF10B50446A0680228A5
:100B400018BF01F0D5F8D4F8E802012100F04EFFFB
:100B5000D4F8E802BDE8104000F01FBF10B504460D
:100B6000D4F8E80200F045FFA06920B151480168BF
:100B700041F00601016010BDD0F8E80200F041BF6D
:100B800010B504464C484949C0F8E842C4F8C002D0
:100B90000160082202230021426083608161C161FB
:100BA0000162FFF7A3FA08B101F0A2F8D4F8C0027D
:100BB00018230022002101F0B7F8D4F8C00258230E
:100BC0000022802101F0B0F8D4F8C002C023002236
:100BD000812101F0A9F8D4F8C0024FF488730022F3
:100BE000012101F0A1F8D4F8C0024FF48073002273
:100BF000822101F099F8002010BD80B5D0F8C00224
:100C0000FFF7D6FA04E080B5D0F8C002FFF7E3FAA8
:100C1000BDE8024056E080B5D0F8C002FFF7E7FA21
:100C2000F6E710B51C461346D0F8C0022246FFF77F
:100C30006BFEBDE8104045E080B5D0F8C002FFF77C
:100C40008EFEE5E780B5D0F8C002FFF7CAFEDFE709
:100C500080B5D0F8C002FFF7F7FED9E7D0F8C02280
:100C600001F07F0328204343D018090602D590F8ED
:100C70002A00704790F86A01704780B5D0F8C0022A
:100C8000FFF734FEC4E780B5D0F8C002FFF78FFE4F
:100C9000BEE780B5D0F8C002FFF76FFEB8E7D0F826
:100CA000C002FFF77CBE054870470000005C0040B2
:100CB0001C10024010ED00E034110020E41600206A
:100CC000704770470146002021B1022901D101205F
:100CD00070470220704730B4002513E050F8042B11
:100CE000D30744BFA9F101039A18091F042942F848
:100CF000045BFAD213468C0744BF15809B1CC907BE
:100D000048BF1D7050F8041B0029E7D130BC704764
:100D10000EB417E04030002181804FF43F42028042
:100D200000207047B0F8402044F2FF0100F077BC8B
:100D3000002070470EB4012120F8401F00220280DD
:100D400082800282002003B0704700002DE9F04746
:100D50000B4602461C7832F82460DD7848F68F1185
:100D600000200E40032D0CD8DFE805F002080C052A
:100D700046F4007606E046F4C06603E046F480667A
:100D800000E0012048F280052E4322F8246048F656
:100D90008F7619780C4632F824703740394329434E
:100DA00022F824104BF68F78197B93F800A00029C5
:100DB0004CF2800C48F6BF7748F2C0095BD1D98865
:100DC0004FF6FE740C4059780029B2F8501011D03B
:100DD000891801EB0A1101F580610C8000F0BCF864
:100DE000DB78012B32F8213000F081801F4087F042
:100DF00020077DE0891801EB0A1101F581610C8063
:100E0000B2F850108C18197804EB011E19690EF213
:100E10000C4E69B9BEF8004048F2FF310C40AEF804
:100E20000040BEF8007047F40047AEF8007011E0D3
:100E30003F2905D24C08C90748BF641CA10207E03E
:100E40004C0911F01F0F08BF641EA10241F40041BC
:100E5000AEF80010197832F82140640406D532F853
:100E6000214026404CEA060622F8216000F06EF888
:100E700083F440535BE032F82A10314041F40141E1
:100E800041F0800122F82A10B2F850401978B3F8E6
:100E900008A0A41804EB011404F580644FF6FE7159
:100EA00001EA0A012180B2F850101C78891801EB80
:100EB000041101F5816E59894FF6FE742140AEF898
:100EC000001059781C78002932F8241012D100F053
:100ED00033F800F041F832F8214008EA040484F4C1
:100EE00040542C4322F82140197832F821301F4019
:100EF0003D431DE000F020F8197832F821406406E7
:100F000006D532F82140264049EA060622F821603B
:100F1000DC781978012C32F821401ABF274087F07D
:100F2000200727402F4322F8217000F00FF81D43BF
:100F300022F82150BDE8F087490406D532F8241084
:100F400031404CEA010122F824107047197832F838
:100F5000213008EA03037047197832F8214064060B
:100F600006D532F82140264049EA060622F82160DB
:100F7000197870472DE9F041024691F800C0487891
:100F80000B7B4BF68F7E4CF2800448F2800848F6CB
:100F9000BF7548F2C00648F68F77ABB9002832F823
:100FA0002C0008D0400636D532F82C0007403E43CE
:100FB00022F82C602FE0400456D532F82C00074070
:100FC0003C4322F82C404FE0002832F82C0029D175
:100FD000400405D532F82C003840044322F82C4058
:100FE000087832F820305B0605D532F820303B40D7
:100FF000334322F82030087832F820301F403E4337
:1010000022F82060087832F820300EEA030348EA1C
:10101000030322F82030087832F820100D4048EA07
:10102000050128E0400405D532F82C003840204363
:1010300022F82C00087832F820305B0605D532F80B
:1010400020303B401E4322F82060087832F82030E0
:101050001F403C4322F82040087832F820301D40E1
:1010600048EA050522F82050087832F820100EEAE8
:10107000010148EA010122F820100020BDE8F081BA
:101080002DE9F0470E4605467178307B012948F27C
:10109000C00848F2800948F68F7A40F00D81326925
:1010A000B16914468C4288BF0C4628B9F28800F01A
:1010B00044FA00F028FAF6E0F3783078022B014683
:1010C00040F0C980336A9A4280F0B28035F821003E
:1010D0000AEA000040F4014040F0800025F82100B9
:1010E0001B1B7178336263093278964635F82E708F
:1010F0007F0604F001004FEA540C4CD5A9B900F06A
:10110000E4F901F20C4114B900F0D5F918E03F2CD4
:1011100002D200F0B6F906E014F01F0F08BF5B1E04
:10112000980240F4004008800AE0012908D1B5F88F
:101130005000284400EB021E0EF20C4EAEF80040A8
:10114000728900F0FAF900F0F1F932BF001B044691
:10115000002030627078B8B900F0CCF914B900F012
:10116000A0F915E03F2C05D26008E20748BF401CFB
:10117000800207E0600914F01F0F08BF401E8002C4
:1011800040F40040388003E0012801D100F0BBF9B1
:10119000A3B232895BE0A9B900F097F901F20441EA
:1011A00014B900F088F917E03F2C02D200F069F979
:1011B00006E014F01F0F08BF5B1E980240F40040C9
:1011C000088009E0012907D1B5F85000401900EB6B
:1011D000021000F204400480328900F0AEF900F001
:1011E000A5F932BF001B0446002030627078B8B900
:1011F00000F093F914B900F054F916E03F2C05D231
:101200006008E20748BF401C800207E0600914F054
:101210001F0F08BF401E800240F40040388004E0E9
:10122000012802D100F079F93C80A3B272890EE066
:1012300035F8212048F68F60024049EA020225F87D
:10124000212000F057F93B80328971699BB2284612
:1012500000F0EAF927E035F821104A06B5F85010F9
:1012600007D54F1907EB001707F20C473C8072892E
:1012700006E04F1907EB001707F204473C8032895C
:1012800000F05BF9707820B900F025F948EA010117
:1012900007E0012807D100F01EF941F4404141F078
:1012A000800125F82010317835F8212048F6BF70EC
:1012B000024082F0300216E000282DD1B169306979
:1012C000884232BF091A08460021B16100F009F9CD
:1012D00080B900F0DCF84BF68F70317835F82120BA
:1012E000024082F4405249EA020025F82100002021
:1012F000BDE8F0873F2806D24108C00748BF491C17
:1013000088023880E7E7410910F01F0F08BF491E27
:10131000880240F40040F4E7F07802285ED1E9B991
:10132000B5F850103078491901EB0011306901F21D
:10133000044110B900F0BFF810E03F2805D2420880
:10134000C00748BF521C900207E0420910F01F0F6F
:1013500008BF521E900240F4004008807078F0B937
:10136000B5F850004719307807EB0017306907F2DD
:101370000C4710B900F08BF819E03F2805D241085E
:10138000C00748BF491C880207E0410910F01F0F41
:1013900008BF491E880240F40040388007E0012859
:1013A00005D1B5F85000316900F0B9F83980F0691D
:1013B000002890D0307835F8201044F2400202EA3C
:1013C0000103934218BF114285D135F820100AEA73
:1013D000010148EA010125F820107CE701284ED1DF
:1013E000B2693069904232BF121A10460022B261CF
:1013F000430900F00102440819BBB5F850C0317828
:10140000AC440CEB011C0CF2044C48B9BCF8007065
:1014100048F2FF313940ACF80010BCF800100CE085
:101420003F2804D2214602B1491C890207E019462F
:1014300010F01F0F08BF491E890241F40041ACF8AB
:1014400000107178B1B9B5F850104F19317807EB29
:101450000117002807F20C473FF43BAF3F2803D2A7
:1014600002B1641CA0024CE710F01F0F08BF5B1E06
:1014700098024EE70129B0D100F033F841E701208E
:1014800036E708B10CF1010C4FEA8C20704739881F
:1014900048F2FF30014039803A8842F400423A80F5
:1014A00070473A8848F2FF3002403A803B8843F464
:1014B00000433B8070470A8848F2FF3002400A80B0
:1014C0000B8843F400430B807047B5F8501049195E
:1014D00001EB02117047307835F820100AEA01015B
:1014E0007047B5F850104F19317807EB011707F224
:1014F0000C477047B5F850004719307807EB0017D4
:1015000007F204477047B5F850004719307807EBE9
:10151000001707F204473C807047B5F850004719A0
:10152000307807EB001707F20C4770473269706993
:101530000119306A7161824270477169A3B228460D
:1015400072E010B50A78497830F82240002948F254
:10155000800305D048F6BF710C4084F0100404E00D
:101560004BF68F710C4084F48054234320F82230D2
:10157000002010BD30B50A7B002A36D14A780C789D
:10158000002A30F8242048F2800348F68F7516D0E0
:10159000520608D530F82420154045F4004545F0A2
:1015A000C00520F82450CA78012A1ED00A7830F8E5
:1015B000224048F6BF710C4084F0200412E052042F
:1015C00008D530F82420154045F4404545F0800505
:1015D00020F824500A7830F822404BF68F710C40E6
:1015E00084F44054234320F82230002030BD0121F0
:1015F00020F8401F002282800323038000207047D0
:1016000011B98021A0F84C100020704700207047CD
:1016100000207047B0F844007047002070470A402F
:10162000A0F840200020704710B500EB42005B1C82
:1016300000F580605B0807E00A784C7842EA0422F3
:10164000891C20F8042B5B1EF6D110BD10B500EBF1
:10165000420000F580605A0806E030F8044B0C7038
:10166000240A4C70891C521EF7D1DA0744BF008847
:10167000087010BD4AB1000011F8013B521E00F87D
:10168000013B1CBF11F8013BF8E77047090102005C
:1016900002D4374881547047364B02F00F021A4487
:1016A00002F8041C7047344B19684FF6FF02000221
:1016B000114000F4E0600843304908431860704767
:1016C00070B52D4B1C68C4F302230124C3F1070538
:1016D000052D2EBF0F2504FA05F56D1E1E1D072EC4
:1016E00034BF0023DB1E2940994004FA03F3BDE810
:1016F00070405B1E1A401143C8E7010007D4012265
:1017000000F01F011E4B8A40400943F8202070471B
:1017100001000BD4012200F01F011A4B8A4040093E
:1017200043F82020BFF34F8FBFF36F8F7047BFF395
:101730004F8F114914480A6802F4E06202430A60BC
:10174000BFF34F8F00BFFDE710B5401EB0F1807FA3
:1017500001D3012010BD0D4C60600F214FF0FF3010
:10176000FFF794FF0021A16007202060002010BD3A
:1017700000E400E018ED00E00CED00E00000FA05E8
:1017800000E100E080E100E00400FA0510E000E084
:1017900038B508B9022032BD00F52774A3690BB132
:1017A0000025A56101B16161012121700270FFF77F
:1017B000E7F9002032BD10B5044604F52772012375
:1017C0001370926961685368C9B298472046FFF761
:1017D00022FA2046FFF711FA002010BD0246002031
:1017E00011B1C2F8B41270470220704780B5FFF7FC
:1017F0000AFA002002BD10B5D0F8B42202241AB1B2
:101800001268904700B90024204610BD80B5D0F87A
:10181000B42253680AE138B5044604F52A7528460F
:1018200000F089FC04F5257001210160428B017DE7
:10183000426011F01F0003D002280BD005D30EE048
:101840002946204600F08AFA0DE02946204600F09D
:10185000B5FB08E02946204600F0DAFB03E001F082
:10186000800100F040F8002032BD38B50446104633
:101870000A0004F5257329D1196803291ED104F53E
:10188000B0714A680D68AA420BD2AD1A0D6095423C
:1018900038BF2A46014692B2204600F0A8FC00203C
:1018A00032BD196A086928B1187A032802D109697A
:1018B00020468847204600F0A2FCF0E70529EED13B
:1018C00000201860002100F00EF8E8E71A6A90691D
:1018D00030B1187A032803D1926920469047DEE799
:1018E000022032BD80212046FFF7ACB938B504464E
:1018F0000800134604F5257543D12868022833D122
:10190000226A616A914207D2521A2262194692B241
:10191000204600F05AFC11E0E269B2FBF1F001FB55
:10192000102090B98A4210D3686882420DD20022FA
:101930000021204600F049FC0020686000230022BE
:1019400000212046FFF7A5F914E0296AC86828B1EC
:10195000287A032802D1C96820468847FFF7C2FFCA
:10196000204600F053FC05E0042818BF002801D1F0
:10197000FFF7B8FF287B012804BF0021297300204E
:1019800032BD2A6A506930B1287A032803D15269DE
:1019900020469047F3E7022032BD38B50446402385
:1019A00000220021FFF73DF904F5AC70012140222F
:1019B0000160C2604023002280212046FFF731F9F8
:1019C0000120402104F52572A0616162107200219E
:1019D000116061600025506A156128B1126A616862
:1019E0005368C9B220469847002032BD01740020D8
:1019F000704700F5277004220178417002700020C2
:101A0000704700F527700178042904BF4178017000
:101A10000020704780B500F527710A78032A03D1AA
:101A20008969C96901B18847002002BD9847002033
:101A300002BD00002DE9F84F0421A348DFF88CA275
:101A400000F0ACFC01280CBF0126002600F0D2FCFF
:101A500000F0AAF89E48016800290ED40068010130
:101A60000BD400F0E2F832240A2000F0E5FC00F08C
:101A700090F8641EF8D100F055FD9649DFF85882C1
:101A80000120086000F0D1F89448C8F80000052152
:101A900040F63542C8F80410C8F80820404600F067
:101AA00075FD08B100F024F900F098FD00F076F81B
:101AB0004FF47A742546DFF8289299F89C0203289F
:101AC00004D0012000F0B8FC6D1EF6D1012200F018
:101AD00066F899F89C02032818BF00F0F1FD814DCB
:101AE0002878FF2804BF99F89C02032804D101201C
:101AF00000F0A2FC641EF3D1642000F09DFCFF27DF
:101B000034462F700026DFF8E0B109E0761C2F7014
:101B1000322E04BF002C00F0D3FD322E00DB0CB3BC
:101B2000404600F055FD00F034F8642000F084FCDD
:101B300099F89C02032804BF29782129E6D1584648
:101B400000F0CCFC6BA000F0C9FC0BF1280000F009
:101B5000C5FC0BF14C0000F0C1FC0BF1900000F053
:101B6000BDFC2F7000F01AF80BF1B80000F0B6FCC5
:101B700000F0C4FD092814BF0FF28C100BF596700D
:101B800000F0ACFC4FF47A7000F056FCFFF7CFFD8C
:101B9000E8E74FF40051504600F00ABC00224FF431
:101BA0000051504600F000BC18B593B0282109A898
:101BB00000F0CCFE1421684600F0C8FE05A9002004
:101BC00000220023002481E81D004FF4803101230E
:101BD0000A910D930F93119109220B9002234FF458
:101BE000E01109921093129109A800F018FF08B1B2
:101BF00000F07EF8022101910F204FF480610090E7
:101C00000391029404940221684601F092F808B10D
:101C100072B6FEE710210591089405A801F04CF971
:101C200008B172B6FEE714B010BD18B585B06846AD
:101C3000002100220023002480E81E002B48234CB2
:101C4000016841F010010160026802F01002049284
:101C50000499026842F020020260036803F0200346
:101C600004930499026842F008020260036803F0DA
:101C7000080304930499026842F0040202600022FF
:101C8000006800F0040004904FF40051049B2046CB
:101C900000F08AFB01214FF40052019100920221D1
:101CA0000022039102926946204600F0B7FA042010
:101CB000002100900191022202926946024800F040
:101CC000ADFA06B010BD0000000C0140001001404C
:101CD00024100240E0044242281B00200030004053
:101CE000201400208801002044360008181002400B
:101CF00072B6FEE75541525420426F6F746C6F61AB
:101D00006465720A0D0000000A0D4661696C656425
:101D10002E2E2E20506C65617365207472792061BF
:101D20006761696E2E0A0D0030B528240D0605D5B1
:101D300001F0070161430844283003E0614308448F
:101D400000F5B4701AB900210173C38004E0038167
:101D500001211B0C01734381002030BDF8B500F058
:101D60004EF904F5277608D0202818BF402825D141
:101D7000B2699368204698471BE1697809291DD804
:101D8000DFE811F0F4000C01CD000601CD008F005A
:101D90000A00CD00E200AB000022ADF80020688808
:101DA000010A012900F07780022967D003292DD08C
:101DB000062923D0072904BF207C002840F0AF80EB
:101DC000B1690A6B6846904707214170BDF8001061
:101DD00081B1E988002910D0BDF80010EA8891424D
:101DE00088BF1146ADF800100146BDF8002020461E
:101DF00000F0E3F9E8880028BED1D8E0207C002874
:101E000054D1B1694A6B68469047DFE7C0B20528F4
:101E10004CD8DFE800F02B231B130B037069826999
:101E2000002A7CD0207C69469047CFE770694269E0
:101E3000002A74D0207C69469047C7E77069026920
:101E4000002A6CD0207C69469047BFE77069C26861
:101E5000002A64D0207C69469047B7E770698268A1
:101E6000002A5CD0207C69469047AFE770694268E1
:101E7000002A54D0207C69469047A7E7207CB169AE
:101E80000028684604D1896A8847022242709DE78B
:101E9000C96A8847F9E77269207C136869469847E0
:101EA00094E7A888002804BFE888002837D16F8805
:101EB000802F34D23078032807F07F072FD0B770F7
:101EC00039462046FEF7D9FE00F09FF8002F07BFE5
:101ED00001213170022030706BE0374F6888387014
:101EE000397802291BDA3378022B08461AD0032BE3
:101EF00023D131B90220307061602046FFF786FCA3
:101F000055E06168884252D0C9B22046FFF77EFC96
:101F1000397861602046FFF76EFC022847D100F057
:101F200007F946E0002942D0606003203070204667
:101F3000FFF761FC0228F2D039E000F0F9F83978B7
:101F40002046FFF763FC34E0E8880128E7D13178C8
:101F5000491E012904D9891EE1D10122211D13E066
:101F60000020A060012204F108010DE03078401E3D
:101F70000228D4D8EA88022AD1D1B068012100B160
:101F80000321E16004F10C01204600F016F910E095
:101F9000688801280DD10121B16008E03078401E29
:101FA0000228BCD86A88012A03D10020B06000F062
:101FB0002CF80020F2BD0000381B002038B500F0DE
:101FC0001EF81CBF2028402815D104F52772107870
:101FD000401E02280FD82B79022B0CDA92699368E5
:101FE000204698470146E888002808BF002904D108
:101FF00000F00BF801E000F09CF8002032BD0D4627
:102000000446287810F060007047204600F0F7B8CA
:10201000F8B50A780446087912F0600504F52773CC
:1020200008D0202D18BF402D65D19A6993682046AD
:10203000984762E002F06002202A05D19A6993680D
:102040002046BDE8F44018474A787AB3012A11D0F7
:10205000032A50D11B78022B12D0032B4BD14A8874
:102060000ABB002818BF80281DD0C988D9B900F044
:102070005BF818E01A78022A02D0032A0AD03AE064
:10208000002818BF802836D000F04EF8802100F0DC
:102090004CF832E04A8882BB10F07F0103D0014641
:1020A0002046FEF7D5FDFFF7B0FF26E0142600F02E
:1020B0007F021B787243A718022B07F5AA7500F060
:1020C000800202D0032B0FD015E0002818BF802813
:1020D00011D10AB107F11405002028600222294617
:1020E000204600F06AF808E000F00F035E43A319F1
:1020F0002AB19A696AB900F01CF80020F2BDD3F841
:102100005821002AF7D0002818BF802804D10020C9
:10211000E3E707F11405F6E701462046FEF79EFDCA
:102120000028DAD00120D8E701462046FEF78ABD14
:102130002946204613E00A7802704B7843708A786B
:10214000CB7802EB032242804B790A7902EB03221F
:1021500082808A79C97902EB0122C280704710B56A
:1021600004468021FEF76EFD2046BDE810400021A8
:10217000FEF768BD00280B4600D1704770B50146D8
:10218000002400E0641C11F8015B002DFAD1240644
:10219000E40DA41C14801178197003225A700222D5
:1021A00007E010F8011BD4B2521C1955D6B2521CCC
:1021B0009D5501780029F4D170BD80B513460222E7
:1021C000C0F89422C361036201E080B513460A4659
:1021D0000021FEF758FD002002BD80B51346032202
:1021E000C0F8942200F5AE721360536001E080B530
:1021F00013460A460021FEF74CFD002002BD80B5C3
:102200000421C0F8941200230022E1E780B50521E3
:10221000C0F8941200230022ECE700002DE9F847F3
:102220004FF0000E0024664A664BDFF89C814FF0A9
:102230000F0982460CE0D7683840D06006E0956010
:102240004D68AD02F7D5D0680743D7600EF1010E97
:102250000F6837FA0EF000F09F80012000FA0EF6AA
:102260003740B742F2D1486838B301281AD0022863
:102270001DD003282ED0112816D012281AD0534D65
:10228000A8421CBF524DA84217D0524DA8421CBFB5
:10229000514DA84211D0514DA8421CBF504DA842EB
:1022A0000BD018E0CC6816E0CC68241D13E0CC6895
:1022B000083410E0CC680C340DE0886808B90424B8
:1022C00009E0012819BF0824CAF814600824CAF8D4
:1022D000106000E00024B7F5807F03D250464FEA3B
:1022E0008E0C05E0AEF108050AF104004FEA850CFA
:1022F000056809FA0CF6B54304FA0CF63543056097
:102300004868C000A2D5D8F8000040F00100C8F825
:102310000000D8F8005005F0010500954FEA8E0541
:1023200000984FEA9E0053F8206005F00C0C09FA63
:102330000CF526EA05052B4EB24508BF00260ED047
:10234000294EB24508BF012609D0284EB24508BF24
:10235000022604D0264EB2450CBF0326042606FAF8
:102360000CF6354343F82050F8434D68ED031568EB
:102370004CBF3D43054015604D68AD0355684CBFEB
:102380003D43054055604D689668ED024CBF47EAF5
:10239000060500EA060552E7BDE8F18780680840B7
:1023A00018BF0120C0B2704702B90904016170472B
:1023B000C26801EA0203914341EA034101617047A7
:1023C00000040140080001401810024000001110F4
:1023D0000000121000002110000022100000311037
:1023E0000000321000080140000C014000100140C4
:1023F0000014014080B50E48016841F010010160F1
:102400000320FFF750F9002000F0CAFD00F0E8FDBE
:10241000002002BD80B507484FF0FF310160002267
:1024200042600160026000F0FDFD002002BD00007E
:10243000002002400C10024038B5044600F0F4FDC4
:1024400014F1010F054602D004490878041900F080
:10245000EBFD401BA042FAD331BD00BF00000020BD
:102460002DE9F84380460D4600F0DEFDDFF80891C7
:10247000044609F5FA664FF4801719E0306819F838
:10248000000008F8010B3168491C31603268B2F570
:10249000FA6F04BF002030607168491E71606D1EC4
:1024A000706800281CBFA8B20028E7D13348076035
:1024B00000F0BAFD001BB0F57A7F08D2A8B250B187
:1024C0002F480760BFF34F8FBFF36F8FE8E7ADB2C0
:1024D0000DB1FF2000E00020BDE8F283F8B505460D
:1024E000FF26002700E07F1CB8B2285C0028FAD144
:1024F0004FF47A74B9B2284600F0D8FD10B1641ECA
:10250000F8D100E000263046F2BD11B581B04FF49D
:102510007A74012101A800F0C9FD10B1641EF8D140
:10252000FF2016BD1FB568460021002200230024AD
:1025300080E81E001348D0F8B41221B1FFF73BF930
:102540006420FFF779FF104C00224FF4C051204661
:10255000FFF72AFF4FF4C0510091012201920021A0
:1025600002910222039269462046FFF757FE4FF47C
:102570007A70FFF761FF1FBD8C01002000E100E0D1
:1025800080E100E0201400200008014038B504007C
:1025900001D1012032BD20684CF6CC41016045F2EA
:1025A0005552026063684360A168816000F03CFDA1
:1025B00005462168C86830B100F036FD401B272869
:1025C000F7D3032032BD4AF6AA200860002032BDAE
:1025D00000684AF6AA2101600020704710B5104C2F
:1025E000104900222046FFF7D3F808B1FFF780FB1F
:1025F0000D492046FFF7F2F808B1FFF779FB0B49C8
:10260000204600F097FE08B1FFF772FB2046FFF767
:10261000EDF818B1BDE81040FFF76ABB10BD00BF70
:1026200020140020300100201C0000202001002088
:1026300030B585B0044600F0F8FE0021009101910C
:102640000394012129480291041BA40A04946946B9
:1026500001A800F063FFFF2500B9002500F0F5FE9A
:10266000284605B030BD2DE9F04105460E4690469E
:1026700000F0DBFE0027002418E056F82420002399
:102680002946022000F096FE08B147F0020756F8EE
:1026900024002968884218BF47F004072D1D04E074
:1026A00013488542E9D347F00107641C444502D230
:1026B000F8B20028F4D000F0C8FEF8B2BDE8F0810E
:1026C00038B50C4C0C486568FFF782FFFFF72AFF0E
:1026D00000F040F94FF47A70FFF7AEFEFFF79AFE74
:1026E000206880F30888A84731BD0000FFFF01087B
:1026F000EFFF010800400008281B00202DE9F04FE3
:10270000ADF5806D83B000217A4DDFF8EC91DFF8F4
:10271000EC818DF800108DF801106970C5F80490F7
:10272000012129704FF0FF0B00F07EFC029017E0B2
:102730000620FFF7EAFE00F0E5F84FF47A70FFF7A5
:102740007BFE00BF7BA0FFF7C9FE6D48FFF7C6FE0A
:102750004FF47A70FFF770FE00F0D4F8FFF7B0FF87
:102760009DF80000002840F0BD8000218DF8021087
:102770000DF102000121FFF773FE04001BD0687801
:1027800080B900F051FC0299401A4EF66122904245
:1027900001D30920A8E04320FFF7B7FE58B900F0A5
:1027A000B1F808E0012806D103210DF1010000F085
:1027B000ACF88DF800009DF80200012818BF02282F
:1027C00005D00428B4D0182800F0858086E00024C5
:1027D0000026012808BF802604D002280CBF4FF431
:1027E0008066FF24022101A8FFF73AFE0746314622
:1027F00003A8FFF735FE074302210DF10600FFF79E
:102800002FFE40EA07019DF806009DF8072042EAE6
:10281000002A334603AA002701E0401E07D198B2E0
:1028200088B112F8010B87EA00275B1E08204FEAE7
:10283000470C3F0443BF8CF4805787F02107BFB299
:102840001FFA8CF7E9E709B144F0040414BB687877
:1028500028B94846FFF7ECFED0B901206870297806
:102860009DF80400814201469DF8050018BF02242E
:102870004118FF2918BF44F00204574518BF44F01F
:1028800001043CB96868B20803A9FFF7ECFE18B16F
:10289000082407E0200005D128786968401C2870CA
:1028A00076186E604CB90620FFF72FFE002803D182
:1028B0008DF8010000F026F852E7082C11BF032123
:1028C00003208DF8010003210DF1010000F01DF837
:1028D0008DF8000044E78DF800B041E7002CFCD1F2
:1028E0000321F1E79DF800000DF5806D03B0BDE810
:1028F000F08F00008001002000400008281B00200D
:10290000443900084046FFF763BE10B50278521CF8
:1029100002700024D2B28A4207D31820FFF7F5FDD7
:102920001820FFF7F2FDFF2402E01520FFF7EDFD70
:10293000204610BD0A0D4669726D7761726520757B
:10294000706461746564210A0D000000002200F0CB
:102950004FBE000038B500F067FBDFF81C450546A8
:10296000206840F0010020602168880706D400F04C
:102970005BFB401B0328F7D3032032BD206820F007
:10298000F80040F08000206000F04EFB0021616004
:102990000546606810F00C0F07D000F045FB401BA7
:1029A00041F289318842F4D3E6E7DFF8D024DFF83A
:1029B000D004DFF8D0141060086800F0F1FA08B114
:1029C000012032BD00F030FB0546206820F0807009
:1029D00020602168880105D500F026FB401B0328F4
:1029E000F7D3C9E70020606000F01EFB216821F4E6
:1029F0001021216005462068810305D500F014FBF5
:102A0000401B6528F7D3B7E7206820F480202060BA
:102A10000020616A41F080716162A06032BD2DE9E1
:102A2000F843040016D02078DFF84C64C10713D5B2
:102A3000706800F00C00042807D0706800F00C00EB
:102A4000082841D17068C1033ED53068810303D5A1
:102A50006068002800F064812078DFF82C7481071A
:102A600019D5706810F00C0F07D0706800F00C00DA
:102A7000082861D17068C1035ED43068810703D52E
:102A80002069012840F04C813168606921F0F8012B
:102A900041EAC00131602178080740F18180A069D6
:102AA000DFF8E813002800F0A68001220A6000F099
:102AB000BBFA0546706A810763D400F0B5FA401B83
:102AC0000228F7D903202EE16068B0F5803F04D1D9
:102AD000306840F48030306014E008B930680AE0B3
:102AE000B0F5A02F306806D140F480203060316806
:102AF00041F4803105E020F480303060316821F409
:102B000080213160606858B100F08EFA0546306867
:102B10008103A1D400F088FA401B6528F7D3D1E7E0
:102B200000F082FA05463068810395D500F07CFA02
:102B3000401B6528F7D3C5E72069A8B1012139609A
:102B400000F072FA05463068810705D400F06CFA8F
:102B5000401B0228F7D9B5E73068616920F0F8001A
:102B600040EAC100306096E7386000F05DFA054643
:102B7000316888078FD500F057FA401B0228F7D933
:102B8000A0E7DFF8F8020168C9084FF47A72B1FBD8
:102B9000F2F2009200BF0098411E00280091F9D186
:102BA000207841076ED5F0690025C10009D4F0698D
:102BB00040F08050F0610125F06900F080500090F5
:102BC0000098DFF8CC82D8F80000C10520D4D8F8EE
:102BD000000040F48070C8F8000000F025FA81463B
:102BE000D8F80000C10513D400F01EFAA0EB0900CC
:102BF0006528F5D366E7086000F016FA0546706AA6
:102C00008107CDD500F010FA401B0228F7D959E70B
:102C1000E068012808D008B9306A09E00528306A60
:102C200006D140F004003062306A40F0010005E057
:102C3000400840003062306A20F00400306241F207
:102C40008938E06860B100F0EFF98146306A8107A9
:102C500013D400F0E9F9A0EB09004045F6D331E7C1
:102C600000F0E2F98146306A810706D500F0DCF910
:102C7000A0EB09004045F6D324E71DB1F06920F030
:102C80008050F061E06900284CD0716801F00C01BF
:102C9000082938D002282AD100F047F805463068C4
:102CA000810105D500F0C0F9401B0228F7D909E7DA
:102CB000206AB0F5803F05D17168A06821F4003129
:102CC000014371607268206A616A22F474120243DF
:102CD0000A437260012000F029F80446306881013F
:102CE00020D400F0A1F9001B0228F7D9EAE600F091
:102CF0001CF804463068810114D500F095F9001BDA
:102D00000228F7D9DEE601280AD07068226A00F4AA
:102D10008031914202BF00F47010616A884201D094
:102D2000012000E00020BDE8F2830020386600F0BA
:102D30007BB92DE9F041040088464ED0554E00F095
:102D400077F802D200F06FF847D120684A4D81072A
:102D500012D5400703D5696841F4E06169602078C5
:102D6000010703D5686840F4605068606968A0682E
:102D700021F0F001014369602178C80725D560681A
:102D8000012802D129688A0303E00228296802D1B8
:102D90008A0102D421E08A071FD56968890840EAC0
:102DA0008100686000F040F907466868616800F0DB
:102DB0000C00B0EB810F08D000F036F9C01B41F2D7
:102DC00089318842F1D303202BE0306800F00700FE
:102DD000804504D200F027F801D0012021E02078BE
:102DE000410705D56A68E06822F4E06202436A6040
:102DF0002178080706D56968206921F4605141EA05
:102E0000C001696000F01AF86A6823491B4BC2F3DD
:102E10000312895CC84018601A48006800F0C0F8C6
:102E20000020BDE8F0813168C90848EAC10131607D
:102E3000306800F00700404570470000174910480F
:102E40000A6802F00C03082B00D0704710B500BFD1
:102E500014A4C2F38343D203E35C08D50968584342
:102E600014A3C1F340415A5CB0FBF2F010BD184608
:102E70000B49484310BD0000001002400C00002028
:102E800000127A0008000020000042428004424202
:102E90000070004000200240043A00080410024084
:102EA00000093D0002030405060708090A0B0C0D82
:102EB0000E0F1010010200002DE9FC410646354DB1
:102EC0003078C10750D5A8690024C10009D4A86989
:102ED00040F08050A8610124A86900F08050009063
:102EE00000982D4F3868C10511D4386840F48070BF
:102EF000386000F099F880463868C10507D400F0C2
:102F000093F8A0EB08006528F6D303203FE0E869BA
:102F100010F440701EBF716801F44071884218D0EF
:102F20001E49E86901220A60002320F440700B600A
:102F3000E861C0070DD500F077F80746E86981071A
:102F400007D400F071F8C01B41F289318842F5D3F3
:102F5000DBE7EA69706822F440720243EA611CB15F
:102F6000A86920F08050A8613078810705D52A68CB
:102F7000B06822F4404202432A603178C80605D581
:102F80002968F06821F48001014329600020BDE830
:102F9000F6810000041002400070004040044242EC
:102FA00038B50D4D0D4B2A7804464FF47A711868E8
:102FB000B1FBF2F2B0FBF2F0FEF7C6FB50B9102CF9
:102FC00008D2002221464FF0FF30FEF779FBAC60BB
:102FD000002032BD012032BD000000200C00002086
:102FE0000E4881B0016841F001010160026802F001
:102FF000010200920099426842F0805242604068AB
:1030000000F08050009000980548016821F0E061D0
:1030100041F00071016001B0704700BF181002401C
:10302000040001407047000001484068704700BF3D
:103030000000002038B5274C274D002205F57A7195
:10304000204600F07EF92946204600F082F9002053
:1030500032BD002070472149087000207047F8B544
:1030600009681F4B1F4C204D00220FE0865C27682B
:10307000DE552668761C26602668B6F5FA6F04BF12
:10308000002727602E68761C2E60521C8A4203DAC5
:103090002E68B6F5FA6FE9D30E4C0146204600F0D3
:1030A00058F9204600F073F90020F2BD10B5094C24
:1030B000D4F8B8320A46D3F8141209B1012010BD71
:1030C0000146204600F03DF92046BDE8104000F0E2
:1030D00046B9000020140020640900208801002067
:1030E0008C010020341B00206009002070B50546CB
:1030F0000026287C40B94FF4007300F03AF8012212
:10310000EA624FF4007305E0402300F032F801203A
:10311000E8624023022201212846FDF782FD0120BA
:10312000C5F86C010823032282212846FDF779FDAA
:10313000012028644FF40770FDF7B5FD040005F584
:103140002E7008BF0126046011D0406801688847CE
:1031500004F50170066146610268287C00280CBFF6
:103160004FF40073402301212846FDF792FD3046BD
:1031700070BD022281212846FDF753BD10B50446DB
:103180008121FDF759FD0022E26201212046FDF771
:1031900053FD0020C4F86C0182212046FDF74CFD50
:1031A0000021216404F52E74206838B160684168FC
:1031B00088472068FDF784FD00202060002010BDB6
:1031C000F8B5044604F527730D46DE6900218DF835
:1031D0000010ADF802100027297811F0600022D00D
:1031E00020283AD1EA88C2B1687809060AD51B6A54
:1031F000D3F808C03146E047EA8831462046FEF75A
:10320000DCFF2FE006F500710870E8884870314651
:10321000EA882046FEF7E1FF24E01B6A68789C6894
:103220002946A0471EE0687820B10A2809D00B285B
:1032300010D012E0197803290FD102220DF10201FA
:1032400004E01878032808D1012269462046FEF7D9
:10325000B4FF07E01878032804D029462046FEF77B
:103260007EFF02273846F2BDF8B5044604F52E70FD
:1032700002688568DAB10E46142070432718F86991
:1032800080B128235E43AB199B6BB0FBF3F503FBC6
:10329000150038B90026FE61002300222046FDF704
:1032A000F2FC02E00023C2F814320020F2BD02203A
:1032B000F2BD70B500F52E74256805F50176FDF7B1
:1032C000EEFCB060206838B162683068D36805F5FC
:1032D00003719847002070BD022070BD10B500F545
:1032E0002E7043680168002B1EBF01F50074207822
:1032F000FF2804D062789B689847FF202070002048
:1033000010BD4321018007487047432101800648D2
:10331000704743210180054870470A210180044815
:10332000704700009800002054000020DC000020BE
:10333000100000200246022011B1C2F8BC12002089
:103340007047D0F8B80200F502700160826000207A
:103350007047D0F8B802C0F804120020704780B55A
:10336000D0F8B81289B101F50272D16859B90123B8
:10337000D360916801638121936812689BB2FDF765
:1033800082FC002002BD012002BD022002BD80B5EA
:10339000D0F8B81261B1D1F80422017C00290CBF29
:1033A0004FF4007340230121FDF773FC002002BDA0
:1033B000022002BD2DE9F84F524E0746307E01280B
:1033C0008B461446994608BF02202CD00120307647
:1033D0004CF2503A504600F04BF8010021D1012F39
:1033E00008BF012103D0022F0CBF022104210025B8
:1033F000454F884600E06D1C454512DA2046494697
:103400002A0100F00FF981B20BEB450000F025F81E
:10341000504600F02DF8396849084900020039602B
:10342000E9D000213176BDE8F28F3949CA68002021
:10343000130600D4704710B5364A374C0A600C604A
:10344000C9680A0648BF012010BD2F48016841F035
:103450008001FFE701600020704710B5294B002272
:10346000DA61294A146844F001041460018010BD37
:1034700070B50446FFF7D8FD0646244D2868C107FD
:103480000AD514F1010FF9D024B1FFF7CDFD801B4F
:103490008442F3D2032070BD2868810644BF2020F7
:1034A00028602968C80605D42969C80702D4296894
:1034B000480703D500F004F8012070BD002070BD5E
:1034C00010B5124A0F4913680020DC0604D5C869FC
:1034D00040F00200C861102013685C0705D5CB6975
:1034E00043F00103CB6140F004001369DC0707D50A
:1034F000CB6943F00403CB611169490849001161AC
:10350000106010BD081B0020102002400C2002405B
:103510000420024023016745AB89EFCD2DE9F04738
:10352000DFF8C4600746307E01250128884608BFC1
:1035300002203BD035764CF250393868DFF8AC4089
:10354000022848460ED1FFF793FF60BB012000F030
:103550002FF84846FFF78CFF0546206820F004004E
:10356000206020E0FFF784FFE8B94FF0FF30C8F893
:103570000000D7F808A001E00AF5806AF868B96889
:1035800001EB80218A450ED2504600F01EF84846D5
:10359000FFF76EFF0546206820F00200290020603A
:1035A000EAD0C8F800A0002030762846BDE8F087B1
:1035B0000D490020C8610D48026842F00402026013
:1035C000016841F0400101607047074A0021D16164
:1035D00006490B6843F002030B604860086840F03E
:1035E0004000086070470000081B002010200240C7
:1035F00000B500BF130096469446103928BFA0E8D6
:103600000C50FAD85FEA417C28BF0CC048BF40F894
:10361000042BC90728BF20F8022B48BF00F8012B54
:1036200000BD0000D2B2203A22BF21FA02F00021F0
:1036300070472032D141D04048409140D14048406D
:10364000704700000A0D3D3D3D3D3D3D3D3D3D3D4A
:103650003D3D3D3D3D3D3D3D3D3D3D3D3D3D3D3D9A
:103660003D3D3D3D3D3D0A0D000000006874747015
:10367000733A2F2F6769746875622E636F6D2F66BA
:103680006572656E632D6E656D6574680A0D000068
:1036900068747470733A2F2F6769746875622E634B
:1036A0006F6D2F5365726765792D656E67696E65FD
:1036B00065722D7275732F53544D3332463130334A
:1036C0005F5553425F426F6F746C6F616465720A3D
:1036D0000D0000003D3D3D3D3D3D3D3D3D3D3D3D01
:1036E0003D3D3D3D3D3D3D3D3D3D3D3D3D3D3D3D0A
:1036F0003D3D3D3D0A0D0A0D00000000506C656126
:1037000073652073656E642061206E657720626941
:103710006E6172792066696C6520776974682058DB
:103720006D6F64656D2070726F746F636F6C207461
:103730006F207570646174652074686520666972B5
:103740006D776172652E0A0D28596F752068617654
:1037500065203130207365636F6E647320746F2051
:10376000646F20746869732E2E2E290A0D3E200086
:103770000A0D46696C652075706C6F616420737406
:103780006172742074696D656F75742120506C6569
:103790006173652074727920616761696E2E0A0D0C
:1037A00000000000122008801A487047042008809A
:1037B000194870472DE9104000F028F827A004E0D0
:1037C0002DE9104000F022F82AA02146FEF7D2FC95
:1037D000204610BD38B51A20088010494C6808688A
:1037E00089680F4D081809D00822A91C00F022F89A
:1037F000042205F11201204600F01CF8284632BDD3
:103800002DE9104000F002F81FA0DEE70A46054C43
:10381000704700004C01002060010020E8F7FF1F06
:1038200064010020041900202DE91040FFF7EEFF8D
:1038300018A0CAE730B500230CE0040F0A2C2CBFF7
:103840003734303401F8134001EB43050024000104
:103850006C705B1C9342F0DB30BD000053544D3361
:1038600032205669727475616C20436F6D506F72AF
:103870007400000053544D6963726F656C65637426
:10388000726F6E696373000043444320436F6E663A
:103890006967000043444320496E74657266616342
:1038A00065000000F0B4024610689568131850686F
:1038B00003EB5004C0071CD54D441AE013F8017BFC
:1038C00005F8017B491EF9D198B113F8011BC6F325
:1038D0008106032E08BF13F8016B01EB0621494254
:1038E000801C294405D011F8016B05F8016B401EBE
:1038F000F9D1A3420ED013F8016B16F0030104BFF7
:1039000013F8011BC91C30090F28DBD113F8010B78
:103910000F30D7E7F0BC02F10C00704710B5074933
:1039200079441831064C7C44163404E00A68081DBA
:10393000114488470146A142F8D110BD2C00000077
:10394000480000004A756D70696E6720746F2075BD
:10395000736572206170706C69636174696F6E2E3B
:103960002E2E0A0D000000006FD3FFFFB0190000DB
:103970008C010020000000002DFFFFFF5C01000013
:10398000B401000000000020FEE7FEE7FEE7FEE7CE
:10399000FEE770477047704700F006B80148FCF733
:1039A0003BBC00003411002002494A6808788218A4
:1039B0004A6070470000002000F00DF8002801D098
:1039C000FFF7ACFFAFF300800020AFF30080FEF7FD
:1039D00031F800F002F80120704700F001B8000053
:1039E0000746384600F002F8FBE7000080B5AFF369
:1039F0000080024A11001820ABBEFBE7260002003F
:103A000070470000000000000000000001020304F5
:103A1000060708090148804701480047013A0008A5
:103A2000253A0008AFF30080AFF30080FFF7C4FF32
:103A3000FFF7FEBFFFF7FEBFFFF7FEBFFFF7FEBFBA
:103A4000FFF7FEBFFFF7FEBFFFF7FEBFFFF7FEBFAA
:103A5000FFF7FEBFFFF7FEBFFFF7FEBFFFF7FEBF9A
:103A6000FFF7FEBFFFF7FEBFFFF7FEBFFFF7FEBF8A
:103A7000FFF7FEBFFFF7FEBFFFF7FEBFFFF7FEBF7A
:103A8000FFF7FEBFFFF7FEBFFFF7FEBFFFF7FEBF6A
:103A9000FFF7FEBFFFF7FEBFFFF7FEBFFFF7FEBF5A
:103AA000FFF7FEBFFFF7FEBFFFF7FEBFFFF7FEBF4A
:103AB000FFF7FEBFFFF7FEBFFFF7FEBFFFF7FEBF3A
:103AC000FFF7FEBFFFF7FEBFFFF7FEBFFFF7FEBF2A
:103AD000FFF7FEBFFFF7FEBF4301000122100810F1
:103AE0000524F4000A0600020B2240181007ED30EE
:103AF00000087D310008C104211F1003DD320008D9
:103B0000690443B33210610110030B33000803044E
:103B1000121304121B04100D09024300020100C01D
:103B2000320904000001020B101E052400100105DB
:103B30002401000104240202052406000107058275
:103B40000308001009040100020A4E1002070501D3
:103B5000027B200107058107F2280044224007224A
:103B60008107200100090744F22C04441635041291
:103B70005304125704125F041003A5370008AD0464
:103B800012C10412B50412D504100301380008292B
:103B900004121243100602020040830440577917B2
:103BA000020345F00508040309041A0300016580B7
:023BB00002FF12
:0400000508003A2590
:00000001FF
